{
  "transactions": [
    {
      "hash": "0x7af500d13539b0463897aba9e6c6c6a595b11667a3b4cf9ed1051cd6dc278824",
      "transactionType": "CALL",
      "contractName": "LivingScienceToken",
      "contractAddress": "0xe1eb0f66a15b80f64ca252fbe0ca3087f74a9b08",
      "function": "approve(address,uint256)",
      "arguments": [
        "0x2d6fEC5f0d3611Ec9BFe7b633bD180B49d17Fcdd",
        "5000000000000000000000"
      ],
      "transaction": {
        "from": "0x7c9ef832417e63f805ccaabd131741aceeb5bc1a",
        "to": "0xe1eb0f66a15b80f64ca252fbe0ca3087f74a9b08",
        "gas": "0xfa6c",
        "value": "0x0",
        "input": "0x095ea7b30000000000000000000000002d6fec5f0d3611ec9bfe7b633bd180b49d17fcdd00000000000000000000000000000000000000000000010f0cf064dd59200000",
        "nonce": "0x8",
        "chainId": "0x1"
      },
      "additionalContracts": [],
      "isFixedGasLimit": false
    },
    {
      "hash": "0x63e71d7c4822e5f3468274f6445f2c672d2e044d83c4055546d754f28b09415d",
      "transactionType": "CALL",
      "contractName": "LSLDisperse",
      "contractAddress": "0x2d6fec5f0d3611ec9bfe7b633bd180b49d17fcdd",
      "function": "disperse(address,address[],uint256[])",
      "arguments": [
        "0xe1Eb0f66a15b80f64CA252fbe0CA3087F74A9B08",
        "[0x0a78378b424a19DC752bB99d2802521E8DD0C590]",
        "[5000000000000000000000]"
      ],
      "transaction": {
        "from": "0x7c9ef832417e63f805ccaabd131741aceeb5bc1a",
        "to": "0x2d6fec5f0d3611ec9bfe7b633bd180b49d17fcdd",
        "gas": "0x14934",
        "value": "0x0",
        "input": "0xc87b1ae3000000000000000000000000e1eb0f66a15b80f64ca252fbe0ca3087f74a9b08000000000000000000000000000000000000000000000000000000000000006000000000000000000000000000000000000000000000000000000000000000a000000000000000000000000000000000000000000000000000000000000000010000000000000000000000000a78378b424a19dc752bb99d2802521e8dd0c590000000000000000000000000000000000000000000000000000000000000000100000000000000000000000000000000000000000000010f0cf064dd59200000",
        "nonce": "0x9",
        "chainId": "0x1"
      },
      "additionalContracts": [],
      "isFixedGasLimit": false
    }
  ],
  "receipts": [
    {
      "type": "0x2",
      "status": "0x1",
      "cumulativeGasUsed": "0x336e7f5",
      "logs": [
        {
          "address": "0xe1eb0f66a15b80f64ca252fbe0ca3087f74a9b08",
          "topics": [
            "0x8c5be1e5ebec7d5bd14f71427d1e84f3dd0314c0f7b2291e5b200ac8c7c3b925",
            "0x0000000000000000000000007c9ef832417e63f805ccaabd131741aceeb5bc1a",
            "0x0000000000000000000000002d6fec5f0d3611ec9bfe7b633bd180b49d17fcdd"
          ],
          "data": "0x00000000000000000000000000000000000000000000010f0cf064dd59200000",
          "blockHash": "0x939ccd42df22f8fc6cbf3b87c17afdf16134794cb52cbcc012b08113a4f7fdfb",
          "blockNumber": "0x182544c",
          "blockTimestamp": "0x6a2f1fc7",
          "transactionHash": "0x7af500d13539b0463897aba9e6c6c6a595b11667a3b4cf9ed1051cd6dc278824",
          "transactionIndex": "0x1d2",
          "logIndex": "0x612",
          "removed": false
        }
      ],
      "logsBloom": "0x00000000000000000000000000000000000000000000000000000000800000000000000000000000000000000000000000000000000000000000000000200000100000000000000000000000000100000000000000000000000000000000000000040000000000000000000000000000000000000000000000000000000000000000000000000000000200000000000000000000000000000000000000000100020000000000000000000000000000000000010000000000000000000000200000000000000000000000000000000000000000000000000004000000000000000010000000000000000000000000000000000000000000000000000000000000",
      "transactionHash": "0x7af500d13539b0463897aba9e6c6c6a595b11667a3b4cf9ed1051cd6dc278824",
      "transactionIndex": "0x1d2",
      "blockHash": "0x939ccd42df22f8fc6cbf3b87c17afdf16134794cb52cbcc012b08113a4f7fdfb",
      "blockNumber": "0x182544c",
      "gasUsed": "0xb54e",
      "effectiveGasPrice": "0x746c958",
      "from": "0x7c9ef832417e63f805ccaabd131741aceeb5bc1a",
      "to": "0xe1eb0f66a15b80f64ca252fbe0ca3087f74a9b08",
      "contractAddress": null
    },
    {
      "type": "0x2",
      "status": "0x1",
      "cumulativeGasUsed": "0x2c0974c",
      "logs": [
        {
          "address": "0xe1eb0f66a15b80f64ca252fbe0ca3087f74a9b08",
          "topics": [
            "0xddf252ad1be2c89b69c2b068fc378daa952ba7f163c4a11628f55a4df523b3ef",
            "0x0000000000000000000000007c9ef832417e63f805ccaabd131741aceeb5bc1a",
            "0x0000000000000000000000000a78378b424a19dc752bb99d2802521e8dd0c590"
          ],
          "data": "0x00000000000000000000000000000000000000000000010f0cf064dd59200000",
          "blockHash": "0x51eb8cc29a23ed15fa0a7b4256f4b8240969ecbd6cca65197f8c441499415627",
          "blockNumber": "0x1825456",
          "blockTimestamp": "0x6a2f203f",
          "transactionHash": "0x63e71d7c4822e5f3468274f6445f2c672d2e044d83c4055546d754f28b09415d",
          "transactionIndex": "0xef",
          "logIndex": "0x4d1",
          "removed": false
        }
      ],
      "logsBloom": "0x00040000000000000000000000000000000000000000000000000000800000000000000000000000000000000000000000000000800000000000000000000000100000000000000000000008000000000000000000000000000000000000000000000000000000000000000000000000000000000000000000000010000000000000000000000000000200000000000000000000000000000000000000000100000000000000000000000000000000000000010000000000000000000000000000000002000000000000000000000000000000000000000004000000000000000000004000000000000000000000000000000000000000000000000000000000",
      "transactionHash": "0x63e71d7c4822e5f3468274f6445f2c672d2e044d83c4055546d754f28b09415d",
      "transactionIndex": "0xef",
      "blockHash": "0x51eb8cc29a23ed15fa0a7b4256f4b8240969ecbd6cca65197f8c441499415627",
      "blockNumber": "0x1825456",
      "gasUsed": "0xe119",
      "effectiveGasPrice": "0xd804530",
      "from": "0x7c9ef832417e63f805ccaabd131741aceeb5bc1a",
      "to": "0x2d6fec5f0d3611ec9bfe7b633bd180b49d17fcdd",
      "contractAddress": null
    }
  ],
  "libraries": [],
  "pending": [],
  "returns": {},
  "timestamp": 1781473345422,
  "chain": 1,
  "commit": "eaca785"
}